:020000040800F2
:1000000018080020890100088F2600080523000831
:100010008D26000899040008912F000800000000B8
:100020000000000000000000000000001F2A00087F
:10003000AF050008000000001D2A00083D2A000846
:10004000A3010008A3010008A3010008A301000800
:10005000A3010008A3010008A3010008A3010008F0
:10006000A3010008A3010008A3010008A3010008E0
:10007000A3010008A301000879050008A3010008F6
:10008000A3010008A3010008A3010008A3010008C0
:10009000852F0008A3010008A3010008A3010008A0
:1000A000A3010008A3010008A3010008A3010008A0
:1000B000A3010008A3010008A12A0008A301000869
:1000C000A3010008A3010008A3010008A301000880
:1000D000A3010008792F0008A3010008A30100086C
:1000E000A3010008A3010008A301000800F002F822
:1000F00000F03AF80AA090E8000C82448344AAF188
:100100000107DA4501D100F02FF8AFF2090EBAE885
:100110000F0013F0010F18BFFB1A43F0010318473B
:1001200090400000B0400000103A24BF78C878C169
:10013000FAD8520724BF30C830C144BF04680C60ED
:10014000704700000023002400250026103A28BF35
:1001500078C1FBD8520728BF30C148BF0B60704739
:100160001FB51FBD10B510BD00F058F81146FFF7C0
:10017000F7FF02F0B5FF00F076F803B4FFF7F2FFE7
:1001800003BC00F07DF8000009488047094800479B
:10019000FEE7FEE7FEE7FEE7FEE7FEE7FEE7FEE737
:1001A000FEE7FEE704480549054A064B7047000094
:1001B0009F2A0008ED0000081802002018080020FF
:1001C00018040020180400204FF0000200B5134668
:1001D00094469646203922BFA0E80C50A0E80C5067
:1001E000B1F12001BFF4F7AF090728BFA0E80C5018
:1001F00048BF0CC05DF804EB890028BF40F8042B11
:1002000008BF704748BF20F8022B11F0804F18BF7D
:1002100000F8012B7047704770477047754600F033
:100220002BF8AE4605006946534620F00700854688
:1002300018B020B5FFF7B6FFBDE820404FF000062C
:100240004FF000074FF000084FF0000B21F00701BE
:10025000AC46ACE8C009ACE8C009ACE8C009ACE801
:10026000C0098D46704710B50446AFF300802046A4
:10027000BDE81040FFF781BF00487047B40100207F
:1002800001491820ABBEFEE72600020070470000BF
:100290002DE9FF410220039000264020CDE9000611
:1002A000144D6946284600F0CDFE012280212846E3
:1002B00000F0C5FF052002F0C5FE4021284600F0F1
:1002C000B1FF01270C4C012811D02670002280219B
:1002D000284600F0B4FF052002F0B4FE6946284627
:1002E000019700F0AFFE207804B0BDE8F0812770E0
:1002F000ECE70000000801402D0000207FB500243D
:100300004020CDE900040220194E03906946304692
:1003100000F098FE01224021304600F090FF0025B9
:100320006006040E01228021304600F088FF05207F
:1003300002F088FE4021304600F074FF012800D012
:100340000020044300228021304600F078FF052081
:1003500002F078FE6D1CEDB2082DE1D30120019072
:100360006946304600F06EFE04B0204670BD0000C5
:10037000000801407FB50446C02000900120019094
:100380000220114D03906946284600F05BFE012CC7
:1003900017D0002C14D100224021284600F04FFF36
:1003A00001228021284600F04AFF052002F04AFE83
:1003B00000228021284600F042FF052002F042FE84
:1003C0007FBD0122E8E700000008014070B5134E30
:1003D00005460024280601D5012200E00022402124
:1003E000304600F02CFF6806050E012280213046C1
:1003F00000F025FF052002F025FE00228021304676
:1004000000F01DFF052002F01DFE641CE4B2082C64
:10041000E0D3BDE87040FFF73BBF0000000801409B
:1004200010B50E4C01224021204600F008FF0122A9
:100430008021204600F003FF052002F003FE002289
:100440004021204600F0FBFE052002F0FBFD204687
:100450000022BDE81040802100F0F1BE00080140FC
:1004600010B50C4C00224021204600F0E8FE01228D
:100470008021204600F0E3FE052002F0E3FD01228A
:100480004021204600F0DBFEBDE81040052002F0D0
:10049000D9BD000000080140FEE70000154900B585
:1004A000496889B00A0E8DF800200A0C8DF80120E9
:1004B0000A0A8DF802208DF803100F4908AB09686D
:1004C00002900A0E8DF804200A0C8DF805200A0A05
:1004D0008DF806208DF8071008210691002104915F
:1004E00005918DF81C106A4602A9044800F07FF8B7
:1004F00009B000BD240000201C00002034000020B2
:1005000070B505464FF6FF7000224AF201040EE076
:10051000AB5C58400023C60702D084EA500000E0DC
:1005200040085B1CDBB2082BF5D3521CD2B28A42C6
:10053000EED370BD00B58BB000200121CDE90501DF
:1005400042F2202200924CF6C042019207905210D3
:10055000029248F68002CDE903200E20CDE9081072
:100560006946044800F0A2F8002801D000F02BF8FA
:100570000BB000BD34000020014800F041BC000079
:100580003401002030B590F840500124AC40C56BD8
:100590006C60046863604368102B036803D0996043
:1005A0000068C26030BD9A600068C16030BD7047AD
:1005B00042F6DF6303E01946491E89B2FCD2401EB1
:1005C00080B2F8D2704772B6FEE790F82020012A78
:1005D00007D0022A05D0416A41F4802141620120FE
:1005E0007047006842690A43426100207047F0B5D5
:1005F00090F820500468A468012D05D0022D03D086
:10060000416A41F480214DE014F0406F01D1E500D2
:1006100045D5C4F301640125A5401D608D684FF4E4
:10062000C0739DB1CE6835434E6845EAC60506687D
:1006300003EB0417F5514FF4C275076805EB041579
:100640000E697E51097D012905D009E00E88CD682B
:1006500045EA4655EBE701684E5946F480764E511F
:100660001179D2F805504FF4C67641EA05210568A4
:1006700006EB0416A9511178D2F801204FF4C47585
:1006800041EA0221026805EB04155151006803EBB1
:100690000411425842F0010242500020F0BD416A6C
:1006A00041F4001141620120F0BD000010B590F846
:1006B00020300268012B07D0022B05D0416A41F49B
:1006C00080214162012010BDD2F8000240F00100FB
:1006D000C2F80002087D00F01F0301209840D2F804
:1006E0001C328343C2F81C32CB69B3B9D2F80C3246
:1006F0008343C2F80C328C894B6864F31F434C6906
:1007000002EBC404C4F840320C890B6864F31F4345
:100710004C6902EBC404C4F84432CB69012B16D1F6
:10072000D2F80C320343C2F80C320C884B6864F3E5
:100730001F434C6902EBC404C4F840320C89CB68F7
:1007400064F31F434C6902EBC404C4F844328B6960
:10075000002BD2F804320FD053EA0003C2F804325F
:100760000B69002BD2F8143208D00343C2F81432BC
:10077000096A012904D008E08343EFE78343F5E7E2
:10078000D2F81C120143C2F81C12D2F8000220F069
:100790000100C2F80002002010BD704770B590F84B
:1007A0002040012C05D0022C03D0416A41F4802165
:1007B00028E0046809B32469A40720D04FF4D87452
:1007C000056804EB01142D5915F0040595600568C2
:1007D0002D591AD0ED08556005682C5904F0020413
:1007E000D4604FF4DA74056804EB01142E5906F056
:1007F0000F06082E0CD308250DE0E468DCE7416AFB
:1008000041F400114162012070BD6D0D1560E3E7F8
:100810002D5905F00F05156105682D59C5F30725FC
:10082000956105682C59240C54614FF4DC720468FE
:1008300002EB0112A4581C700468A458240A5C70CE
:100840000468A458240C9C700468A258120EDA7034
:100850004FF4DE72046802EB0112A4581C710468A4
:10086000A458240A5C710468A458240C9C71046880
:10087000A258120EDA71006829B1016941F0200115
:100880000161002070BDC16841F02001C160F8E73E
:100890002DE9F05F0546006800244669D0F8049011
:1008A0008768D0F80CB0D0F810A0D0F81880F10705
:1008B00048D0F90714D001218160B80703D5284634
:1008C00000F029FA0CE0780702D54FF4006407E045
:1008D000380702D54FF4805402E0284600F01AFA97
:1008E000F80516D529684FF480708860B80503D5DF
:1008F000284600F012FA0CE0780502D544F40054C2
:1009000007E0380502D544F4804402E0284600F0B0
:1009100003FAF80316D529684FF480308860B803CD
:1009200003D5284600F0FBF90CE0780302D544F427
:10093000004407E0380302D544F4803402E028463E
:1009400000F0ECF9300707D55FEACB6004D52968E1
:10095000102044F40074C86070074FF0080707D5F2
:100960005FEA0B7004D52868C760284600F066F976
:10097000B00706D52868C068800702D0284600F076
:100980005FF9700607D55FEACA6004D529681020B0
:1009900044F480640861B00607D55FEA0A7004D5A4
:1009A00028680761284600F085F9F00606D5286812
:1009B0000069800702D0284600F07DF9B00308D511
:1009C0005FEAC96005D5296810204860284600F014
:1009D00073F9F00307D55FEA097004D5286847600A
:1009E000284600F09DF9300446D55FEA497040D5AD
:1009F000F00504D55FEAC87001D044F00104B005E9
:100A000004D55FEA887001D544F00204700504D56E
:100A10005FEA487001D544F00404300529D518F088
:100A2000700F26D008F07000402815D006DC102882
:100A300009D020280AD0302816D10AE050280ED03C
:100A4000602811D10EE044F008040DE044F01004D9
:100A50000AE044F0200407E044F0400404E044F0DD
:100A6000800401E044F480742868816921F07001F9
:100A70008161296804204860002C05D0686A204301
:100A800068622846FFF789FEBDE8F09F70B5040054
:100A900003D094F8200010B104E0012070BD20467E
:100AA00000F082F82068016841F00101016000F067
:100AB000CBFB0546052604E000F0C6FB401B0A28D8
:100AC00011D820684068C007F6D02068016821F07E
:100AD0000201016000F0B8FB05460BE000F0B4FB3A
:100AE000401B0A2806D9606A40F40030606284F82E
:100AF0002060D2E7206840688007EFD4207E01287C
:100B0000206801683DD021F080010160607E0128ED
:100B10002068016838D021F040010160A07E0128E2
:100B20002068016833D021F020010160E07E0128B7
:100B3000206801682ED041F010010160207F01285B
:100B40002068016829D021F008010160607F012838
:100B50002068016824D021F004010160D4E9020179
:100B60000843D4E90412114308436168491E08434D
:100B70002168C86100206062012084F82000002004
:100B800070BD41F08001C0E741F04001C5E741F090
:100B90002001CAE721F01001CFE741F00801D4E7B6
:100BA00041F00401D9E7000010B586B000210091A2
:100BB00001910291039100681C49884233D11C487D
:100BC000C16941F00071C161C16901F00071049116
:100BD000816941F0080181618069164C00F00800CC
:100BE00004904FF4807000906946204600F02AFA85
:100BF0006015009002200190032003906946204672
:100C000000F020FA0C48416821F4C04141F0E06155
:100C100041F48041416000221146142000F080FB25
:100C2000142000F06FFB06B010BD0000006400400F
:100C300000100240000C014000000140704700001D
:100C400000B589B007AB6A460021FFF7A7FD009801
:100C5000A0F58071113917D114499DF81C00087056
:100C60001349012812D002280ED19DF823009DF8C7
:100C700020209DF8223000EB02609DF82120120414
:100C800002EB03221044086009B000BD9DF8230068
:100C90009DF820209DF8223000EB02609DF8212075
:100CA000120402EB032210444860EDE72C00002000
:100CB00024000020704770477047000070B504465C
:100CC00090F82000012804D0606A40F4002060629F
:100CD00018E0022084F820002068016821F001015A
:100CE000016000F0B1FA05460EE000BF00F0ACFA7A
:100CF000401B0A2808D9606A40F400306062052071
:100D000084F82000012070BD20684068C007EDD144
:100D1000606270BD7047704770477047704770479A
:100D2000704710B590F821100022022905D0042147
:100D3000816380F82020012010BD01680B6823F03A
:100D40000E030B6001680B6823F001030B6090F841
:100D50004030C46B012101FA03F3636080F8211075
:100D600080F82020104610BD10B590F82110002406
:100D7000022903D00421816301243DE001680A684F
:100D800022F00E020A6001680A6822F001020A607D
:100D90001A4A0168914201D1012121E0174A143217
:100DA000914201D110211BE0144A2832914201D115
:100DB000891515E0114A3C32914201D189140FE0A6
:100DC0000E4A5032914202D14FF4803108E00B4A72
:100DD0006432914202D14FF4801101E04FF08071F2
:100DE000064A083A5160012180F82110002180F85C
:100DF0002010416B01B18847204610BD0800024019
:100E00002DE9F05FC16B0C6801680B68D0F840C039
:100E1000042202FA0CF2494DDFF824A1494E4A4F50
:100E2000DFF828B1DFF828E122422CD05A072AD572
:100E30000A68920603D40A6822F004020A60016874
:100E4000A94201D1042219E0514501D1402215E007
:100E5000B14202D14FF4806210E0B94202D14FF4A6
:100E600080420BE0594502D14FF4802206E07145E3
:100E700002D14FF4800201E04FF080622F4908391F
:100E80004A60C16A3BE04FF0020808FA0CF818EA21
:100E9000040F4FF000094FF0010235D05FEA83786C
:100EA00032D50B689B0605D40B6823F00A030B6050
:100EB00080F821200168A94201D1022219E05145A0
:100EC00001D1202215E0B14202D14FF4007210E0AE
:100ED000B94202D14FF400520BE0594502D14FF410
:100EE000003206E0714502D14FF4001201E04FF0EC
:100EF0000072124908394A6080F82090816A0029FE
:100F00001AD0BDE8F05F0847082505FA0CF5254220
:100F100012D01B0710D50B6823F00E030B6090F85E
:100F20004010C36B02FA01F15960826380F82120FE
:100F300080F82090016BE2E7BDE8F09F08000240D6
:100F40001C000240300002404400024058000240B1
:100F50006C00024030B528B308C813491422194464
:100F6000B1FBF2F18900C16310498163022141772D
:100F70001A6843F6F0718A43D0E900142143D0E99E
:100F800002452C4321430469214344692143846978
:100F90002143114319600021416301224277017707
:100FA000084630BD012030BDF8FFFDBF0000024003
:100FB00070B5044690F82000002501280CD00120CF
:100FC00084F8200094F821600020012E06D084F8D7
:100FD00020000225284670BD022070BD022684F83C
:100FE0002160A0632068066826F00106066020469E
:100FF000FFF7C8FAE06A00282068016802D041F0D3
:101000000E0106E021F0040101602068016841F052
:101010000A0101602068016841F001010160D9E71F
:1010200070B5044600F010F90546601C02D0044873
:101030000078044400F008F9401BA042FAD370BDC8
:10104000000000202DE9F84FDFF8B8910024A9F145
:10105000040B23460F2709F1040AABF1040EC9E083
:101060000125A5402A40AA427DD1674ED1F804C08F
:10107000ACEB0608B44532D014DCBCF1030F3AD017
:1010800009DCBCF1000F2AD0BCF1010F1CD0BCF16F
:10109000020F31D11DE0BCF1110F17D0BCF1120FBE
:1010A0002AD119E0B8F5881F19D006DCB8F5803FC1
:1010B00015D0B8F5801F1FD111E0B8F5001F0ED074
:1010C000B8F5041F18D10AE0CB6815E0CB681B1DEA
:1010D00012E0CB6808330FE0CB680C330CE08B6870
:1010E0002BB1012B4FF0080303D0456104E004232A
:1010F00002E0056100E00023FF2A01D8064601E076
:1011000000F104064FEA840501D9A5F12005D6F8BF
:10111000008007FA05FC28EA0C0803FA05F548EAFE
:101120000508C6F800804D68ED0062D5374DAE6900
:1011300046F00106AE61AD6924F0030605F0010535
:101140000095334D06EB050CDCF80850A607360F6A
:1011500007FA06F825EA0805DFF8B880404503D10C
:101160004FF0000817E044E0DFF8AC80404502D1C2
:101170004FF001080FE0DFF8A480404502D14FF0A6
:10118000020808E0DFF89880404502D14FF00308DC
:1011900001E04FF0040808FA06F848EA0508CCF820
:1011A00008804D68D9F80060ED024D4601D5164320
:1011B00000E096432E604D68DAF80060AD025546B7
:1011C00001D5164300E096432E604D68DBF80060C1
:1011D000AD035D4601D5164300E096432E604D6891
:1011E000DEF80060ED03754601D5164300E0964336
:1011F0002E60641C0D682A46E5407FF431AFBDE8DF
:10120000F88F000008040140000011100010024097
:101210000000014000080140000C014000100140A6
:10122000001401408068084000D001207047C26867
:1012300021EA02030A4043EA0241016170470AB110
:10124000016170470904FBE70148806870470000AE
:1012500000000020024881680278114481607047D4
:1012600000000020074810B5016841F0100101603E
:10127000032000F075F80F2000F006F800F024F8C5
:10128000002010BD0020024070B50D4D04464FF403
:101290007A712878B1FBF0F00A490968B1FBF0F0E7
:1012A00000F0DCFA48B9102C07D200222146501E6B
:1012B00000F036F800206C6070BD012070BD0000A9
:1012C000000000200C0000200C4808B5816941F0A6
:1012D00001018161816901F001010091C16941F061
:1012E0008051C161C06900F080500090044841689D
:1012F00021F0E06141F00071416008BD0010024042
:1013000000000140002809DB00F01F02012191408C
:101310004009800000F1E020C0F800117047000093
:10132000F0B40E4B1B680C46C3F30223C3F1070550
:10133000042D00D90425191D072901D2002300E03E
:10134000DB1E012606FA05F1491E214099409E4008
:10135000761E16403143F0BC01F064BE0CED00E097
:10136000064900F0070208684FF6FF03184040EAFC
:101370000220034A10430860704700000CED00E0B3
:101380000000FA052DE9F0470F46050061D0434EF5
:10139000306800F00700B84209D2306820F007003A
:1013A00038433060306800F00700B84251D12868F7
:1013B0003B4C810712D5400703D5606840F4E060DC
:1013C00060602878000703D5606840F46050606072
:1013D0006068A96820F0F000084360602878C007C2
:1013E00028D06868012810D02168022810D0890709
:1013F00000292EDA616821F0030101436160FFF7E3
:1014000023FF804641F288390DE021688903EFE728
:101410008901EDE7FFF718FFA0EB0801494502D964
:101420000320BDE8F0876068696800F00C00B0EB4D
:10143000810FEFD1306800F00700B8420BD9306857
:1014400020F0070038433060306800F00700B842F1
:1014500001D00120E5E72878400705D56068E968F4
:1014600020F4E060084360602878000706D56068D3
:10147000296920F4605040EAC100606000F038F84B
:101480006168084AC1F30311515CC840064908600D
:1014900006480068FFF7F8FE0020C2E7002002407F
:1014A00000100240A83B00080C00002004000020AF
:1014B0000448054900684968044AC1F30221515CA7
:1014C000C84070470C00002000100240B83B0008E4
:1014D0000448054900684968044AC1F3C221515CC7
:1014E000C84070470C00002000100240B83B0008C4
:1014F0000E4A51680E4801F00C03042B11D0082B42
:101500000FD10C48C1F38343C903C05C0AD55168AD
:10151000084AC1F34041921E515C054A5043B0FB5A
:10152000F1F0704704494843704700000010024042
:1015300000127A00983B000800093D002DE9F84FA1
:10154000040070D02078C04DC00749D06868C0F34F
:101550008100012807D06868C0F38100022809D102
:101560006868C00306D52868800339D560680028FC
:10157000E7D035E06068B0F5803F0BD010B1B0F532
:10158000A02F11D0286820F480302860286820F42B
:10159000802002E0286840F480302860606890B1C4
:1015A000FFF752FE06460AE0286840F480202860D3
:1015B000F0E700BFFFF748FE801B642873D8286857
:1015C0008003F7D50CE0FFF73FFE064605E000BFBD
:1015D000FFF73AFE801B6428F0D828688003F7D410
:1015E00020789A4E80074FF001094FF0000839D556
:1015F000686810F00C0F07D06868C0F381000228FB
:1016000009D16868C00306D42868800714D520690A
:10161000012808D110E02069B0B1C6F80090FFF7AA
:1016200013FE074605E00AE1FFF70EFEC01B022885
:10163000C4D828688007F7D52868616920F0F800C9
:1016400040EAC10028600DE0C6F80080FFF7FCFD0D
:10165000074604E0FFF7F8FDC01B022823D82868DE
:101660008007F7D4207800072CD57948A169D9B133
:10167000C0F80090FFF7E8FD074604E0FFF7E4FD3F
:10168000C01B02280FD8686A8007F7D571484FF44D
:10169000FA510068B0FBF1F0009000BF0098411EC5
:1016A0000091FAD20EE080E0C0F80080FFF7CCFD98
:1016B000074604E0FFF7C8FDC01B022875D8686A1A
:1016C0008007F7D42078400760D5E8690027C0007C
:1016D00008D4E86940F08050E861E869012700F02B
:1016E000805000905C480168C90513D401688346A6
:1016F00041F480710160FFF7A7FD824606E000BF5C
:10170000FFF7A2FDA0EB0A0064284ED8DBF800002A
:10171000C005F5D5E06801280AD008B1052813D026
:10172000286A20F001002862286A20F0040002E004
:10173000286A40F001002862E06841F2883B98B1D5
:10174000FFF782FD82460BE0286A40F00400286221
:10175000EEE700BFFFF778FDA0EB0A0159455AD824
:10176000286A8007F6D50CE0FFF76EFD824605E09B
:10177000FFF76AFDA0EB0A0159454CD8286A80079B
:10178000F6D41FB1E86920F08050E861E06988B3C1
:101790006968C1F38101022944D00228C6F860803B
:1017A00004D0FFF751FD044638E034E0FFF74CFD6C
:1017B000074604E0FFF748FDC01B02282BD8286825
:1017C0008001F7D4206AB0F5803F05D16868A16830
:1017D00020F4003008436860D4E9080108436968D0
:1017E00021F4741108436860C6F86090FFF72CFD7F
:1017F000044606E025E000BFFFF726FD001B022897
:1018000009D828688001F7D51BE000BFFFF71CFD51
:10181000001B022802D90320BDE8F88F2868800148
:10182000F4D40EE00128F7D06868226A00F4803111
:10183000914204D1616A00F47010884201D0012005
:10184000EAE70020E8E70000001002400000424202
:10185000800442420C0000200070004010B5401E81
:10186000B0F1807F01D3012010BD4FF0E024606112
:101870000F21601701F0D6FB0020A0610720206136
:10188000002010BD7047704770B590F83C20012AC9
:1018900026D0012480F83C40022280F83D200368D5
:1018A0005A689D6822F070060A6832435A600D4BF0
:1018B00002689A4208D0B2F1804F05D00A4B9A4292
:1018C00002D00A4B9A4204D1496825F0800319439B
:1018D000916080F83D40002180F83C10084670BDC2
:1018E000022070BD002C01400004004000080040B0
:1018F00010B5040003D094F83D0010B107E00120BA
:1019000010BD002084F83C00204600F01FF80220A3
:1019100084F83D00211D206801F0C8F8012084F8FA
:10192000460084F83E0084F83F0084F8400084F8C4
:10193000410084F8420084F8430084F8440084F8AD
:10194000450084F83D00002010BD000008B5016886
:101950001048B1F1804F14D00F4A914219D1C1699A
:1019600041F00401C161C069002200F00400009050
:1019700011461E20FFF7D4FCBDE808401E20FFF7EB
:10198000C1BCC16941F00101C161C06900F0010041
:10199000009008BD001002400008004090F83D1083
:1019A000012901D001207047022180F83D10016813
:1019B000CA6842F00102CA6000680B49884208D038
:1019C000B0F1804F05D00949884202D008498842C9
:1019D00004D1816801F00701062903D0016841F0B4
:1019E0000101016000207047002C0140000400400C
:1019F0000008004070B5044690F83C00002501281E
:101A000017D0012684F83C60022084F83D0020684D
:101A1000826822F0770222F47F42826008685028B0
:101A200038D00DDC20284FD005DC90B3102811D120
:101A30004AE0022070BD302846D040280AD13BE061
:101A400060282FD070280DD0B0F5805F03D0B0F59E
:101A5000005F12D0012584F83D60002084F83C002E
:101A6000284670BDCB68D1E90121206801F067F8F4
:101A70002068816841F0770109E0CB68D1E9012154
:101A8000206801F05CF82068816841F48041816041
:101A9000E1E719E0CA684968206801F005F95021BA
:101AA000206806E0CA684968206801F00EF96021E4
:101AB000206801F04EF8CEE7CA684968206801F056
:101AC000F3F840212068F4E7226801461046F0E769
:101AD00070472DE9F04104460068C66805694FF07B
:101AE0000007A90713D5B10711D5F91E016101201F
:101AF0002077206880698007204602D0FFF7E8FF42
:101B000004E000F0AFF8204600F041F927776807BD
:101B100016D5700714D521686FF004000861022003
:101B200020772068806910F4407F204602D0FFF7BC
:101B3000CFFF04E000F096F8204600F028F9277760
:101B4000280715D5300713D521686FF00800086104
:101B5000042020772068C0698007204602D0FFF764
:101B6000B7FF04E000F07EF8204600F010F9277778
:101B7000E80616D5F00614D521686FF0100008614C
:101B8000082020772068C06910F4407F204602D0EA
:101B9000FFF79EFF04E000F065F8204600F0F7F83C
:101BA0002777E80708D0F00706D021686FF001001A
:101BB0000861204600F03AF9280608D5300606D517
:101BC00021686FF0800008612046FFF75BFE680621
:101BD00008D5700606D521686FF0400008612046E0
:101BE00000F08CF9A8060AD5B00608D521686FF078
:101BF000200008612046BDE8F041FFF744BEBDE883
:101C0000F081000000B585B00021009101910291A2
:101C100003910068B0F1804F1BD10F48816941F0FA
:101C2000040181618069694600F0040004904FF46A
:101C3000004000900220019003900848FFF702FA4C
:101C40000748416821F4407141F0E06141F480713E
:101C5000416005B000BD00000010024000080140D6
:101C600000000140704770B5044690F83C00002623
:101C70000D4601280FD0012084F83C006AB1042AE7
:101C80001DD0082A2FD00C2A3FD00126002084F82E
:101C90003C00304670BD022070BD206800F062FF3D
:101CA0002068816941F0080181612068816921F023
:101CB00004018161206881692A69114311E020686B
:101CC00000F078FF2068816941F40061816120683B
:101CD000816921F480618161206881692A6941EA12
:101CE00002218161D2E7206800F090FF2068C1697D
:101CF00041F00801C1612068C16921F00401C1619E
:101D00002068C1692A69114311E0206800F0AAFF28
:101D10002068C16941F40061C1612068C16921F492
:101D20008061C1612068C1692A6941EA0221C161FB
:101D3000ACE710B5040003D094F83D0010B107E003
:101D4000012010BD002084F83C00204600F01EF861
:101D5000022084F83D00211D206800F0A7FE01202C
:101D600084F8460084F83E0084F83F0084F8400080
:101D700084F8410084F8420084F8430084F8440069
:101D800084F8450084F83D00002010BD704770477E
:101D900010B50446022249B104290ED0082913D0F7
:101DA00094F84100012816D0012010BD94F83E009F
:101DB0000128F9D184F83E200FE094F83F00012873
:101DC000F2D184F83F2008E094F840000128EBD1DC
:101DD00084F8402001E084F841200122206800F0CE
:101DE000A1FE0F492068884203D1426C42F40042B0
:101DF00042642068884208D0B0F1804F05D009497C
:101E0000884202D00849884204D1816801F0070164
:101E1000062903D0016841F001010160002010BDD6
:101E2000002C014000040040000800402DE9F04172
:101E300000682B49884250D12A4C2B4DDFF8AC80EA
:101E4000A0680026401CA0602088401C2080A0883C
:101E5000401C80B2A0806188491C6180C82824D3BE
:101E6000234FA6803878032802D16E6000F0BEFAB6
:101E70003878022810D1D8F800201E48296800F0D0
:101E80004FFA1C48406901F0ABFC686000F0AEFA04
:101E90004FF48970FEF702FB3878012805D100F075
:101EA000A5FA40F21110FEF7F9FA608814280AD357
:101EB0006680A888002302B2B8F8000001B2288822
:101EC00000B201F067F82088B0F5FA7F05D34FF42F
:101ED00000510948FFF7ABF92680BDE8F08100000A
:101EE0000008004010000020240000201C000020FA
:101EF0002C0000207801002000100140704770473E
:101F000070470000F8B5016804460868CA684B6964
:101F100010F00F0F4FF0000559D003F0010602F446
:101F20009077374365D0C10705D0D10503D5616CE3
:101F300041F001016164410705D5D90703D0616C07
:101F400041F002016164810705D5D90703D0616CB6
:101F500041F004016164010707D502F0200131431B
:101F600003D0616C41F008016164616C00293AD0D2
:101F7000800604D5900602D5204600F040FF206878
:101F80004069616CC0F38010090700D460B320463B
:101F900000F000FF20684069400621D52068143019
:101FA00050E8001F21F0400140E80012002AF5D15E
:101FB000E06BA8B16D494163E06BFEF7D5FE0028E8
:101FC00011D0E06B416B01B0BDE8F04008478306DB
:101FD0000FD593060DD52046BDE8F84000F00FBFA1
:101FE0002046FFF78DFFF8BD2046FFF789FF6564A7
:101FF000F8BD266B2023012E7CD1C6067AD5D606E5
:1020000078D508684868009048694FF00206400695
:1020100040D5E16B086840680004000CE8D0A28D50
:102020008242E5D9E085886920282DD020680C30CF
:1020300050E8001F21F4807140E80012002AF5D119
:102040002068143050E8001F21F0010140E8001220
:10205000002AF5D12068143050E8001F21F040011B
:1020600040E80012002AF5D184F842302563206848
:102070000C3050E8001F21F0100140E80012002A47
:10208000F5D1E06BFEF74DFE6663A08DE18D401A41
:1020900081B22AE0A08DE18D401A81B2E08D002846
:1020A000A6D00029A4D022680C3252E8000F20F4F8
:1020B000907042E80007002FF5D12068143050E8F6
:1020C000002F22F0010240E80027002FF5D184F80C
:1020D0004230256320680C3050E8002F22F01002B7
:1020E00040E80023002BF5D166632046FFF707FF89
:1020F000F8BDFFE705062BD5150629D594F8410054
:102100002128F5D1A068B0F5805F01D12069B0B178
:10211000206A411C2162216800784860E08C401EE2
:102120000004000CE084E3D12068C16821F0800144
:10213000C1602068C16841F04001C160D8E7206AF1
:102140000088C0F308004860206A801C2062E5E730
:102150004006CDD55006CBD5CA68204622F04002B5
:10216000CA6084F8413000F0CBF8C1E7EF2C0008DA
:1021700070B5040004D094F84100002510B106E0C9
:10218000012070BD84F84050204600F023F8242040
:1021900084F841002068C16821F40051C1602046E4
:1021A00000F08EFE2068016921F4904101612068F1
:1021B000416921F02A0141612068C16841F4005160
:1021C000C1606564202084F8410084F842006563A2
:1021D000002070BD70B586B00025064600950195BB
:1021E000029503950068224988423FD121498869B8
:1021F00040F480408861886900F4804004908869D8
:1022000040F00400886188691B4C00F004000490D1
:102210004815009002200190032003906946204653
:10222000FEF710FF2015CDE900056946204602950E
:10223000FEF708FF124C114820601020C4E9010588
:102240008020C4E903056561A5612046E561FEF7CC
:1022500081FE08B1FEF7B7F9B463002211462520CC
:102260006662FFF75DF82520FFF74CF806B070BDF9
:1022700000380140001002400008014044000240C4
:10228000340100207047000070B5044690F841000A
:10229000202801D0022070BD49B342B32162A2843C
:1022A000E28400206064212384F84130A56B114B47
:1022B000AB62A56B104BEB62A56B104B2B63A36B52
:1022C0005863256813462A1DA06BFEF771FE21682E
:1022D0006FF0400008602068143050E8001F41F0A3
:1022E000800140E80012002AF5D1002070BD0120D5
:1022F00070BD0000492D00088B2D0008FF2C000840
:1023000070477047FEE710B5FEF78AF84620FEF7E3
:102310005DF80120FEF75AF8BDE81040FEF7A0B8BE
:1023200070B50446881A01F077FA20600546E16925
:1023300001F0BEFAE060A06A002849DD206B01F0E0
:102340006BFAA16901F080FA04D8216811F1FF4FFE
:102350000BD211E0606B01F05FFAA16901F074FB30
:10236000216802D8B1F5000F06DB206A01F0A0FA5F
:10237000A16801F0C7F9A060D4E9000101F096FB63
:10238000616A01F095FA05462061D4E9021001F076
:10239000B9F9294601F0B6F9A16B01F0B3F9124978
:1023A00001F0B0F905466061206B01F035FA29466D
:1023B00001F04AFA03D2206B01F02EFA6061606BE3
:1023C00001F02AFA616901F03FFB04D3606906E07D
:1023D0002946206ACAE7606B01F01EFA6061A061BD
:1023E0002068606070BD0000000070410A4810B5B0
:1023F000406801F05EF821F000410022074B01F037
:1024000083F80022064B00F0CFFE01F025F80549C5
:102410000968486310BD00002400002000407F4090
:10242000000059405C000020134810B511490160BC
:102430000921416000214FF440328160C0E903125C
:102440004FF400124261017641768176C1760177C0
:102450004177FEF71BFB08B1FEF7B5F8FEF76AF807
:102460000548FEF72BFCBDE8104002210248FEF7AC
:10247000ACB800000064004034000020094808B5F2
:10248000416941F0010141614069002200F0010011
:10249000009011460E20FEF743FFBDE808400E20D5
:1024A000FEF730BF001002402DE9F04385B0002454
:1024B00025480094019402940394816941F010012D
:1024C0008161816901F010010491816941F020016D
:1024D0008161816901F020010491816941F0080165
:1024E0008161816901F008010491816941F0040171
:1024F00081618069DFF8548000F004004FF40055DA
:102500000490002229464046FEF799FEDFF84090ED
:102510004FF44057002239464846FEF790FE00959A
:10252000022601250396CDE9015469464046FEF78F
:1025300089FD00970396CDE9015469464846FEF7A8
:1025400081FD05B0BDE8F08300100240001001409D
:10255000000C014010B58EB0002407940894099433
:102560000A940B941C2168460C94FDF72DFE1E481E
:102570004FF0804101604721C0E901144FF4FA7126
:10258000C0E903148461FFF7B3F908B1FEF71BF843
:102590004FF48050079007A91348FFF72BFA08B1B2
:1025A000FEF711F81048FFF7C4FB08B1FEF70BF86F
:1025B0000B940BA90C480C94FFF766F908B1FEF7D1
:1025C00002F86020CDE90004029400226946064822
:1025D0000494FFF748FB08B1FDF7F5FF0248FFF749
:1025E00011FB0EB010BD00005C00002010B586B0DD
:1025F000002417480094019402940394049413490E
:10260000059401604721C0E901144FF47A71C0E9D3
:10261000031480218161FFF76BF908B1FDF7D3FF47
:102620004FF48050009069460948FFF7E3F908B17C
:10263000FDF7C9FF049404A905480594FFF724F9A0
:10264000002801D0FDF7BFFF06B010BD0008004014
:10265000A40000200C4810B50A4901604FF416513F
:102660004160002181600C22C160C0E904128161D7
:10267000C161FFF77DFD002803D0BDE81040FDF7E4
:10268000A2BF10BD00380140EC000020FEE7FEE7CD
:1026900070B500240021204600F0F1F8002500204C
:1026A00000F078F96D1CEDB2802DF8D3641CE4B213
:1026B000082CEFD370BD0000134810B5816986B0B7
:1026C00041F0080181618069104C00F0080004901D
:1026D000112001900320039040200090694620467D
:1026E000FEF7B0FC8020009069462046FEF7AAFC69
:1026F000012240212046FEF7A2FD01228021204632
:10270000FEF79DFD06B010BD00100240000C014018
:102710002DE9F0410024124E0746802525FA04F2E7
:102720003A4080213046FEF78AFD012240213046A2
:10273000FEF785FD002240213046FEF780FD641C37
:10274000E4B2082CEAD3012240213046FEF777FD9F
:102750003046BDE8F04100224021FEF770BD000088
:10276000000C014010B50B4C012280212046FEF7E1
:1027700066FD012240212046FEF761FD00228021F6
:102780002046FEF75CFD20460022BDE810404021B7
:10279000FEF755BD000C014010B5094C0022802108
:1027A0002046FEF74CFD012240212046FEF747FD62
:1027B00020460122BDE810408021FEF740BD000008
:1027C000000C014010B500204FF47A720021491C22
:1027D0009142FCD3401C9042F8D3FFF76DFFAE202E
:1027E00000F0C7F8D52000F0C4F8802000F0C1F850
:1027F000A82000F0BEF83F2000F0BBF8D32000F086
:10280000B8F8002000F0B5F8402000F0B2F8A120A0
:1028100000F0AFF8C82000F0ACF8DA2000F0A9F81A
:10282000122000F0A6F8812000F0A3F8CF2000F0DD
:10283000A0F8D92000F09DF8F12000F09AF8DB20F4
:1028400000F097F8302000F094F8A42000F091F800
:10285000A62000F08EF88D2000F08BF8142000F0F8
:1028600088F8AF2000F085F8BDE81040FFF710BFF2
:102870000246012000E05043491EFCD2704710B5CB
:102880000C4640F0B00000F074F8102040EA14103C
:1028900000F06FF804F00F00BDE8104000F069B8D8
:1028A0002DE9F0410746CE004000083E801E154647
:1028B0004FF0FF38F1B2C0B2FFF7E1FF114800243A
:1028C00000EB05152819A0F5805090F8000E00F0D7
:1028D00061F8641CE4B2082CF4D308EB4700F1B2B1
:1028E000C0B2FFF7CCFF00242819A0F5805090F863
:1028F000080E00F04FF8641CE4B2082CF4D3BDE8D5
:10290000F0810000C03B00082DE9F0411D4617464C
:102910000E468046002415E0291B1020491EFFF7B3
:10292000A7FFB7FBF0F000F00F0206EB0400C1B206
:102930000A2A404601D2303200E03732FFF7B0FFBA
:10294000641CE4B2AC42E7D3BDE8F0812DE9F0416C
:1029500015460E460746002406E03019C1B2384637
:10296000FFF79EFF641CE4B22A5D002AF5D1BDE8A2
:10297000F08110B50446FFF7F5FE7820FFF7C8FE9A
:102980000020FFF7C5FE2046FFF7C2FEBDE810405D
:10299000FFF702BF10B50446FFF7E4FE7820FFF70B
:1029A000B7FE4020FFF7B4FE2046FFF7B1FEBDE8BA
:1029B0001040FFF7F1BE000009480078012808D058
:1029C000022808D0032808D006A208210220FFF719
:1029D000BDBF05A2F9E705A2F7E705A2F5E70000EC
:1029E0002C00002030000000310000003200000008
:1029F00033000000074806494622C16106490162CA
:102A00000021C0E90C210122C0E90A217047000021
:102A10000AD7233D780100200AD7233C704770472E
:102A200010B50446FDF7FCFC4620FDF7CFFC204620
:102A3000FDF7CCFCBDE81040FDF712BDFEF70ABC67
:102A400030B58FB028216846FDF7BEFB14210AA8D7
:102A5000FDF7BAFB01210804CDE90010002402941F
:102A600002250491CDE907504FF4E0100990684623
:102A7000FEF764FD08B172B6FEE70F20CDE90A0546
:102A80004FF48060CDE90C4002210AA80E94FEF7B5
:102A900079FC002801D072B6FEE70FB030BD704758
:102AA0000148FFF716B80000A4000020F0B5026846
:102AB000194B1A4C1A4D4FF08047984205D0B84236
:102AC00003D0A04201D0A84203D122F070064A6888
:102AD0003243984205D0B84203D0A04201D0A84268
:102AE00003D122F44074CA6822434C6922F0800268
:102AF000224302608A68C2620A688262984201D1F7
:102B000009690163012141610169C90703D00169B4
:102B100021F001010161F0BD002C014000040040E2
:102B20000008004010B501F01F030121046A99401C
:102B30008C430462016A9A401143016210BD10B5D2
:102B4000846842EA032224F47F440A4322438260D9
:102B500010BD826822F070020A4342F007018160D2
:102B60007047000030B5036A026A22F00102026277
:102B70004268846924F073050C682C4323F0020535
:102B80008B682B430A4DA8420BD123F00805CB6874
:102B900022F440722B434D6923F0040315438A69E4
:102BA0002A434260846149684163036230BD00008A
:102BB000002C014030B5026A036A23F0100303625F
:102BC000436884690D6824F4E64444EA05248D686A
:102BD00022F0200242EA05120B4DA8420ED1CD6828
:102BE00022F0800242EA05124D6923F4406343EA71
:102BF00085038D6922F0400243EA850343608461C6
:102C000049688163026230BD002C014030B5036A1F
:102C1000026A22F4807202624268C46923F400737B
:102C200024F073050C682C438D6843EA05230C4D92
:102C3000A8420ED1CD6823F4006343EA05234D6911
:102C400022F4405242EA05128D6923F4806342EA7D
:102C500005124260C4614968C163036230BD00006F
:102C6000002C014030B5046A026A22F480520262EC
:102C70004268C3690D6823F4E64343EA05238D687F
:102C800024F4005444EA0534064DA84204D14D69A9
:102C900022F4804242EA85124260C36149680164BD
:102CA000046230BD002C014010B5036A046A24F0B0
:102CB00001040462846924F0F00444EA021423F05D
:102CC0000A020A438461026210BD10B5036A046AF5
:102CD00024F010040462846923F0A00324F47044F7
:102CE00044EA023243EA01118261016210BD10B56B
:102CF000406A0021C185C184FFF702F910BD70B59B
:102D0000446A2068406994F84110C0F3C01000255F
:102D1000212904D118B1E584204600F062F820682A
:102D2000406994F84210C0F38010222904D118B1F0
:102D3000E585204600F02EF8606C40F010006064DD
:102D40002046FFF7DDF870BD10B50146406A0968FE
:102D50000968890616D40021C1840168143151E83C
:102D6000002F22F0800241E80023002BF5D10168FA
:102D70000C3151E8002F42F0400241E80023002BC3
:102D8000F5D110BDFFF7BCFA10BD10B5406AFFF7D2
:102D9000B8FA10BD01680C3151E8002F22F490728E
:102DA00041E80023002BF5D10168143151E8002FD0
:102DB00022F0010241E80023002BF5D1016B01292B
:102DC00009D101680C3151E8002F22F0100241E8CE
:102DD0000023002BF5D1202180F84210002101634F
:102DE000704701680C3151E8002F22F0C00241E821
:102DF0000023002BF5D1202180F84110704708B541
:102E000090F84210222901D0022008BD82684FF4B8
:102E100080539A4201D1016921B1816A9A421BD043
:102E20004AB10AE00268816A5268C2F308020A8065
:102E3000816A891C08E0026972B10268526802F076
:102E40007F020A70816A491C8162C18D491E090492
:102E5000090CC18503D01BE002685268F1E70168E4
:102E6000CA6822F02002CA600168CA6822F480722F
:102E7000CA6001684A6922F001024A61202180F893
:102E8000421000214163026B012A03D0FFF7FAF9D7
:102E9000002008BD016301680C3151E8002F22F0C9
:102EA000100241E80023002BF5D101680A68D20620
:102EB00002D50A6849680091818DFFF720F8E7E79D
:102EC00070B5044600680169E26821F4405111437D
:102ED00001612169A0680843616908432168CA68E3
:102EE00041F20C639A430243CA6020684169A269B7
:102EF00021F44071114341611E492068884202D18A
:102F0000FEF7E6FA01E0FEF7D3FA00EBC00101EBB1
:102F10000012606864218000B2FBF0F3B3FBF1F3B0
:102F20006FF018067343B2FBF0F5B2FBF0F605EB59
:102F30008305322303EB0515B5FBF1F5B6FBF1F67E
:102F400005F0F00505EB0615B2FBF0F6B2FBF0F06C
:102F5000B0FBF1F06FF01802504306EB800003EB7A
:102F60000010B0FBF1F0216800F00F0028448860E9
:102F700070BD0000003801400148FEF7C3BF0000EB
:102F8000EC0000200148FDF783BC00003400002065
:102F9000FEE700003EB5040A8DF801408DF8000000
:102FA000080A8DF80300100A8DF805008DF804203A
:102FB000180A8DF807008DF802108DF806300821E8
:102FC0006846FDF79DFA8DF80800000A8DF80900A3
:102FD0000A2269460148FFF757F93EBDEC00002080
:102FE00010B50120FFF71CFD1020FFF719FDB420DC
:102FF000FEF716F800F0B8F808480178407800EBC2
:10300000012080B200F06CFA4FF03332044B00F034
:10301000CBF800F021FA80B210BD00002E00002095
:103020003333F33F0907090E002804DB00F1E020E9
:1030300080F80014704700F00F0000F1E02080F8E5
:10304000141D704747E000BF00BF00BF00BF00BFB6
:1030500000BF00BF00BF00BF00BF00BF00BF00BF78
:1030600000BF00BF00BF00BF00BF00BF00BF00BF68
:1030700000BF00BF00BF00BF00BF00BF00BF00BF58
:1030800000BF00BF00BF00BF00BF00BF00BF00BF48
:1030900000BF00BF00BF00BF00BF00BF00BF00BF38
:1030A00000BF00BF00BF00BF00BF00BF00BF00BF28
:1030B00000BF00BF00BF00BF00BF00BF00BF00BF18
:1030C00000BF00BF00BF00BF00BF00BF00BF00BF08
:1030D00000BF00BF00BF401E80B2B4D270470000E6
:1030E000FEF7C0F8FFF7ACFCFFF7DEF9FFF7C6F913
:1030F000FFF77CFAFFF72EFAFFF7ACFAFFF794F927
:10310000FFF760FBFFF776FC00211048FEF740FE5A
:1031100001210FA20846FFF719FC0FA2012102208E
:10312000FFF714FC0E48FEF739FCFFF7ECF80D4CE6
:10313000FFF756FF2060FFF753FF024603230821E5
:103140000120FFF7E1FBFFF737FCF1E75C0000200F
:103150006C75783A000000006D6F64653A000000FD
:10316000A40000201C00002070B5FDF759F947208D
:10317000FDF72CF900240B4DFDF7C0F82855032C62
:103180000DD00020FDF7F6F8641CE4B2032CF3D355
:10319000FDF766F9BDE870400520FDF709BA01208A
:1031A000F0E700002E0000202DE9C04130B4DFF828
:1031B000A0C23CEA111418BF3CEA131400F0EC80E2
:1031C00081EA03051CEA111444EAD57418BF1CEA0D
:1031D000131500F0C780A4EB05044FF0004545EA45
:1031E000C12145EAC32341EA505143EA525304F155
:1031F0007F74994204F500344FEAC0204FEAC2229E
:1032000008BF904200F09C804FEA13650FF2401611
:10321000765D4FEA134506FB05F7C7F1807706FB9D
:1032200007F74FEAD737A7FB03687642C8F580381F
:10323000A7FB06CE38BFA8F1010807FB08E64FF050
:10324000000EA6FB028CE6FB03CEDCF1000CCEF1F7
:10325000004E38BFAEF1010EA6FB0C584FF0000730
:103260004FF00005E6FB0E87A1FB08C6A0FB07CECA
:1032700016EB0E0645F10005E1FB076515F1E04E82
:103280007EBFA4F580345FEA46066D4116F18007E3
:1032900045F100054FEA17274FEA066647EA05673A
:1032A000A6F1DE46B6F1805F4FEA15251FD93846F4
:1032B00024F0010C05EBC471BCF1FE6F01EB0C11A5
:1032C00002D8F0BCBDE8008124425CBF01F5801E3D
:1032D0009EEAC47F02D4F0BCBDE80081244238D409
:1032E000F0BCA1F1C041BDE8004100F005BA4FEAD1
:1032F000D22242EA43524FEAD323A7FB02864FEA87
:10330000D02040EA415007FB03661EEA0E0F4FEA49
:10331000D12105FB026658BFA6EB0056B6EB00565E
:103320004FEA520E4EEAC37E18EB0E0E56EB530ECA
:10333000BDD518EB02085E417F1C55F10005B6E7CC
:103340004FF480154FF000074FF000064FF00008D3
:10335000ADE7F0BC4FF0000001F1C04101F00041C9
:10336000BDE8008111EA0C1F0CEA131500D00CE037
:1033700013EA0C1F00F025804FF00000F0BC81EA3A
:10338000030101F00041BDE80081F0BCBDE800414F
:1033900081EA030100F0B0B9F0BCBDE8004170B5AE
:1033A00000F05CF9097EFC3E00F007B881EA0301F9
:1033B0004FF0000001F00041704781EA030100F086
:1033C0009BB9F0BCBDE800414FF0000021497047B7
:1033D000FFFDFBF9F7F5F4F2F0EEEDEBE9E8E6E4DA
:1033E000E3E1E0DEDDDBDAD8D7D5D4D3D1D0CFCD61
:1033F000CCCBCAC8C7C6C5C4C2C1C0BFBEBDBCBB9A
:10340000BAB9B8B7B6B5B4B3B2B1B0AFAEADACAB94
:10341000AAA9A8A8A7A6A5A4A3A3A2A1A09F9F9E6E
:103420009D9C9C9B9A999998979796959594939320
:10343000929191908F8F8E8E8D8C8C8B8B8A8989B7
:10344000888887878685858484838382828181803A
:103450000000FF070000F87F4FEA1153A3F58063D7
:10346000D3F11E03A8BFD3F1200C08DB4FF00042BC
:1034700042EAC12252EA505232FA03F0704709423E
:103480000BD4102BC4BF0020704703F5787CBCF12F
:10349000FF3F05D04FF0FF3070474FF000007047FE
:1034A00070B500F0DBF800BF49922480002070471F
:1034B000F0E710F0004248BF4042B0FA80F310FA43
:1034C00003F10AD0C3F11D0303F580634FEA4150B5
:1034D00002EB035202EBD12170474FF0000070471E
:1034E000B0FA80F310FA03F10AD0C3F11D0303F51B
:1034F00080634FEA41504FEA035202EBD1217047FB
:103500004FF0000070470000DFF848C170B51CEABA
:10351000111E1EBF1CEA13159EEA0C0F95EA0C0F34
:1035200000F06F8081EA030423EA4C134EEAD47E54
:1035300021EA4C1141F4801143F48013AE44A1FB05
:10354000024CA0FB0365AEF17F7E361955EB0C05EE
:10355000A1FB034C4CF10003A0FB021C16EB0C0674
:10356000654153F10003094218BF46F0010613F408
:10357000007F0BD14FEA03314FEA0530340341EAB3
:10358000155140EA16506FF003020AE04FEAC321DA
:103590004FEAC520F40241EA555140EA56506FF017
:1035A000020202EB2E4201EB025585EACE710AD0EF
:1035B0005FEA440C18BF24F0004450F1000041F1D0
:1035C000000120EAD47040F2FE7C624500D270BD5A
:1035D000A84214BF4FF080444FF04044002E08BF73
:1035E0000024BEF1806FA8BFA1F1C041BDE87040CA
:1035F00080F282804FF0000001F1C04101F00041F3
:1036000070479EEA0C0F0CEA131518BF95EA0C0FD1
:1036100006D04FF0000081EA030E0EF0004170BDAD
:1036200000F01CF88900013E00F007B800F009B86E
:103630004FEA430C5FEA5C5C08D081EA030100F0CA
:103640005BB84FEA410C5FEA5C5CF6D14FF00000DA
:10365000014970470000FF070000F87F0EF1020EDD
:103660002EF0030E5EF8046B364205D4012A43EBBC
:10367000030515F5001F12D8012841EB010C1CF5BC
:10368000001F0CD80ED14FEAD17C15F5001F0CEBB2
:103690004C0C0CF1020C08BF4CEBD37C04E04FF057
:1036A000080C01E04FEAD37C0CEB4C0526FA05F63A
:1036B00006F00706B6F1040C06D20EEB860CBDE848
:1036C00070404CF0010C6047DFE80CF0090B02027F
:1036D0004FF000414FF00000A1F5002170BD1946E8
:1036E0001046012851EB010418BFD4F5001484BF23
:1036F000002001F0004170BD0808A0F500114FEA5C
:103700003101704790EA010F48BF81F0004100F19C
:10371000D481421A3CBF801A89184FEAD0524FF028
:103720007F4C1CEA410FA2EBD15318BF9CEA026FF9
:1037300000F03B804FF0004C4CEA00204CEA0121A5
:1037400021FA03FC10EB0C0C1ED202F1FF325FEAEF
:103750001C2040EBC25038BF70471CF07F0F4FEA6F
:10376000400C18BFBCF17F4F38BF7047C3F1200336
:10377000994008BF20F00100BCF17F4F38BF70476F
:10378000A0F1C04000F05BB94FEA3C00000A40EBFA
:10379000C25028BF1CF0FF0F4FEA400CE6D018BF04
:1037A000BCF17F4F38BF7047EAE79CEA026F05D053
:1037B00010EA5C0F08BF00F00040704710B500F041
:1037C000F8F800BF64FBBE3E401058BFC0F1404057
:1037D000491058BFC1F140418142EFF3008070476A
:1037E00041000B0ED3F19E0208D950F400034FEABA
:1037F000032323FA02F048BF4042704710B500F09F
:10380000D8F800BF49922480002070476FF0004232
:1038100082EA20007047000010F0004148BF40429B
:10382000B0FA80F310FA03F2C3F19D030BD051EA12
:10383000C35101EB1220530638BF704700F101005D
:1038400008BF20F00100704750EA010C00F113801E
:103850001CF5000F58BFBCF5000F01D4884270471B
:1038600007D710F5000F58BF11F5000F15D4884287
:103870007047894270471CF5000F04D5BCF5000F56
:10388000F7D5814270474FF0807C1CEB400F38BF6A
:103890001CEB410F01D28142704710B500F089F84E
:1038A000922449004FF000504FF08051FFF78CBF39
:1038B0004FF47F0C1CEAD0121EBF1CEAD11392EA0F
:1038C0000C0F93EA0C0F00F0478090EA010F48BFFD
:1038D00042F480724FF0004C4CEA00204CEA012187
:1038E00002EB0302A0FB0113A2F50002002918BF9E
:1038F00043F001035B0028BF4FEA330342EB22424F
:103900005FEA132C4CEBC2502EBFBCEB436FB2F5F9
:103910007C0F70474FEA036CBCF1004F08BF20F0EA
:103920000100B2F57C0F38BF70470BD582F0FF0263
:1039300012F5803FC8BF704700F1C040D8BF00F00B
:103940000040704700F5000C5FEA4C0C48BF704720
:10395000B0F1C04000F073B890EA010F0CEAD11347
:1039600048BF42F48072624538BF634504D280EAA2
:10397000010000F00040704710B500F01AF800BFD9
:103980008900013E00F007B800F009B85FEA410C79
:103990005FEA1C6C08D080EA010000F050B85FEAD2
:1039A000400C5FEA1C6CF6D14FF00040A0F580009F
:1039B00070470EF1020E2EF0030E5EF8044B244207
:1039C00004D44FEA4102B2F17F4F11D84FEA4003CD
:1039D000B3F17F4F0CD80ED14FEAD07CB2F17F4FBC
:1039E0000CEB4C0C0CF1020C08BF4CEBD17C04E04E
:1039F0004FF0080C01E04FEAD17C0CEB4C0324FAA9
:103A000003F404F00704B4F1040C06D20EEB840CAA
:103A1000BDE810404CF0010C6047DFE80CF00708EF
:103A200002024FF00040A0F5800010BD08464200A1
:103A300018BFD2F1807288BF00F0004010BDFF2196
:103A400041EAD050C005704751EA000C00F11380E4
:103A50001CF5000F58BFBCF5000F01D48142704720
:103A600007D711F5000F58BF10F5000F15D481428C
:103A70007047894270471CF5000F04D5BCF5000F54
:103A8000F7D5884270474FF0807C1CEB410F38BF60
:103A90001CEB400F01D28842704780EA010081EAA6
:103AA000000180EA0100FFF7F8BE000090EA010F74
:103AB00048BF81F000413FF52CAE421A04D882F095
:103AC0000042A0EB020011444FEAD0524FF07F4C6D
:103AD0001CEA410FA2EBD15318BF9CEA026F4AD0F7
:103AE0004FF0004C4CEA00204CEA012121FA03FC83
:103AF000B0EB0C0C0FD412F0FE0F36D05FEA4C0086
:103B00001DD5001240EBC25038BF70471CF03F0F6C
:103B100018BF70470BE0A2F101025FEA1C2040EBE6
:103B2000C25038BF70471CF07F0F18BF7047C3F1F9
:103B30002003994014BF401E20F001007047800808
:103B40004FEA122308BF7047B0FA80FCA2EB0C02C8
:103B5000CCF1280C60FA0CF093EA122F04BF00EBB2
:103B6000C25070474FEAC3707047130A5FEADC1017
:103B700008BF7047F6E79CEA026F04D010EA5C0FBA
:103B800008BF0020704710B5FFF713FF40DFF63E77
:103B900081F000407047010202030405060708098E
:103BA0000A0B0C0D0E0F10100000000000000000AA
:103BB00001020304060708090000000001020304D3
:103BC00000000000000000000000000000000000F5
:103BD000000000F80000000000000033300000008A
:103BE00000100C06100C0600000000000000000091
:103BF00040C07840C0784000043F04043F04040003
:103C0000007088FC08300000001820FF211E000012
:103C1000F008F000E018000000211C031E211E0027
:103C200000F00888700000001E21232419272110AD
:103C300010160E0000000000000000000000000050
:103C4000000000E0180402000000000718204000F7
:103C500000020418E00000000040201807000000E7
:103C6000404080F0804040000202010F010202004B
:103C7000000000F0000000000101011F010101002F
:103C8000000000000000000080B070000000000094
:103C9000000000000000000000010101010101011D
:103CA00000000000000000000030300000000000B4
:103CB0000000000080601804006018060100000089
:103CC00000E010080810E000000F102020100F0086
:103CD000001010F8000000000020203F202000000D
:103CE0000070080808887000003028242221300065
:103CF00000300888884830000018202020110E006D
:103D00000000C02010F8000000070424243F240015
:103D100000F80888880808000019212020110E00EA
:103D200000E0108888180000000F112020110E00FC
:103D300000380808C83808000000003F00000000F4
:103D40000070880808887000001C222121221C00B5
:103D500000E010080810E0000000312222110F00DE
:103D6000000000C0C0000000000000303000000073
:103D700000000080000000000000806000000000E3
:103D800000008040201008000001020408102000FC
:103D90004040404040404000040404040404040047
:103DA00000081020408000000020100804020100DC
:103DB000007048080808F0000000003036010000DC
:103DC000C030C828E810E0000718272423140B008F
:103DD0000000C038E0000000203C23020227382009
:103DE00008F8888888700000203F202020110E00ED
:103DF000C0300808080838000718202020100800E4
:103E000008F808080810E000203F202020100F00CC
:103E100008F88888E8081000203F20202320180098
:103E200008F88888E8081000203F20000300000000
:103E3000C03008080838000007182020221E0200A1
:103E400008F808000008F808203F210101213F2060
:103E5000000808F8080800000020203F202000008B
:103E600000000808F8080800C08080807F0000007B
:103E700008F888C028180800203F200126382000B4
:103E800008F8080000000000203F2020202030001B
:103E900008F8F800F8F80800203F003F003F200035
:103EA00008F830C00008F808203F200007183F003D
:103EB000E01008080810E0000F10202020100F006C
:103EC00008F808080808F000203F2101010100005F
:103ED000E01008080810E0000F18242438504F00A4
:103EE00008F8888888887000203F2000030C302064
:103EF00000708808080838000038202121221C00A2
:103F0000180808F8080818000000203F20000000EA
:103F100008F808000008F808001F202020201F00D3
:103F20000878880000C83808000007380E01000033
:103F3000F80800F80008F800033C0700073C0300FD
:103F4000081868808068180820302C03032C302063
:103F50000838C800C83808000000203F20000000D2
:103F600010080808C838080020382621202018002A
:103F7000000000FE020202000000007F40404000FE
:103F8000000C30C000000000000000010638C00036
:103F900000020202FE000000004040407F000000DE
:103FA0000000040202020400000000000000000003
:103FB0000000000000000000808080808080808001
:103FC00000020204000000000000000000000000E9
:103FD00000008080808000000019242222223F20DF
:103FE00008F8008080000000003F112020110E0022
:103FF0000000008080800000000E112020201100B1
:10400000000000808088F800000E112020103F2062
:104010000000808080800000001F222222221300E6
:10402000008080F0888888180020203F2020000031
:104030000000808080808000006B949494936000E6
:1040400008F8008080800000203F210000203F20F1
:1040500000809898000000000020203F20200000F1
:10406000000000809898000000C08080807F0000E1
:1040700008F8000080808000203F24022D302000BE
:10408000000808F8000000000020203F2020000069
:104090008080808080808000203F20003F20003F83
:1040A0008080008080800000203F210000203F2091
:1040B0000000808080800000001F202020201F0042
:1040C000808000808000000080FFA12020110E0071
:1040D0000000008080808000000E112020A0FF8062
:1040E000808080008080800020203F21200001000F
:1040F0000000808080808000003324242424190064
:10410000008080E0808000000000001F2020000070
:104110008080000000808000001F202020103F20B1
:10412000808080000080808000010E300806010041
:1041300080800080008080800F300C030C300F00E6
:1041400000808000808080000020312E0E31200011
:10415000808080000080808080818E701806010041
:1041600000808080808080000021302C222130005F
:1041700000000000807C020200000000003F404080
:1041800000000000FF00000000000000FF00000031
:104190000002027C800000000040403F0000000060
:1041A00000060101020204040000000000000000FB
:1041B000D041000800000020340000002801000861
:1041C0000442000834000020E40700004401000815
:1041D00001000000100000000000000000127A0042
:1041E00000000000000000000000000000000000CF
:1041F00000000000000000000000000000000000BF
:0442000000000000BA
:04000005080000ED02
:00000001FF
